:020000040800F2
:10000000A00B00206D0200088D1C000809170008D5
:10001000891C0008D50700081D31000800000000F9
:10002000000000000000000000000000592F000840
:10003000D907000800000000552F00085D2F0008B8
:10004000870200088702000887020008870200086C
:10005000870200088702000887020008870200085C
:10006000870200088702000887020008870200084C
:10007000870200088702000887020008870200083C
:1000800087020008870200088702000800000000BD
:1000900000000000000000000000000087020008CF
:1000A000870200088702000887020008870200080C
:1000B00087020008870200088702000887020008FC
:1000C00087020008870200088702000887020008EC
:1000D000870200088702000887020008000000006D
:1000E000870200088702000887020008000000005D
:1000F000000000000000000000000000870200086F
:10010000000000008702000887020008870200083C
:1001100000000000000000000000000000000000DF
:10012000870200088702000887020008870200088B
:10013000870200080000000000000000000000002E
:10014000000000000000000000000000870200081E
:10015000870200088702000887020008870200085B
:10016000870200088702000800000000000000006D
:10017000000000000000000000000000000000007F
:1001800000000000870200080000000000000000DE
:10019000870200088702000800F002F800F056F815
:1001A00014A696E8000CB244B344DA4501D100F03D
:1001B0004DF8BAE80F000FA696E83000A5EB04054D
:1001C00004EB0607AAEB0704A7F101074FEA151590
:1001D0004FEA3414A4F10104AC4201D300F036F824
:1001E00013F0010F18BFFB1A43F0010300F001F8F0
:1001F000DBE71847D0380000F0380000103A24BF81
:1002000078C878C1FAD8520724BF30C830C144BF7B
:1002100004680C6070470000704700000023002451
:1002200000250026103A28BF78C1FBD8520728BF06
:1002300030C148BF0B6070471FB503F03FF89DE821
:10024000030000F091F91FBD10B510BD00F040FA99
:100250001146FFF7F1FF02F063FF00F05EFA03B40E
:10026000FFF7F2FF03BC00F08FFA00000948804757
:1002700009480047FEE7FEE7FEE7FEE7FEE7FEE788
:10028000FEE7FEE7FEE7FEE704480549054A064BA0
:10029000704700000930000899010008A0050020FF
:1002A000A00B0020A0070020A007002070B5064684
:1002B00000F03EF9056806F10B0020F00704B44297
:1002C0009CBF002070BD2B466A68BAB11068A0427E
:1002D00010D304F1080188423CBF5068586007D32E
:1002E0005168101941601168091B01605860146061
:1002F000101D70BD13465268002AE7D121462846DA
:1003000000F01EF90028DED170BD53EA020C00F0A7
:1003100069802DE9F04B4FF00006002B1FBFB3FAA8
:1003200083F503FA05F424FA05F65E4012BF16437E
:10033000B2FA82F502FA05F4C5F120051EBF22FAD1
:1003400005FC44EA0C04203556EA044C4FEA1444F8
:1003500018BF641C4FF000084FF00009904271EB89
:10036000030C39D3002919BFB1FA81F701FA07F656
:10037000B0FA80F700FA07F6C7F120071EBF20FA8F
:1003800007FC46EA0C062037B6FBF4FCA7EB050792
:10039000103F07F01F0BCBF120062CFA06F60CFAE3
:1003A0000BFB44BFB3460026202FA4BF5E464FF090
:1003B000000B5BEA060C08BF4FF0010B19EB0B09B1
:1003C00048EB0608ABFB027C06FB02CC0BFB03CC24
:1003D000C01B71EB0C01C1E70B4602464146484683
:1003E000BDE8F08B13B5084318BF4FF0FF3001464E
:1003F000AFF30080BDE81C40704740EA010310B530
:100400009B070FD1042A0DD310C808C9121F9C42A4
:10041000F8D020BA19BA884201D9012010BD4FF096
:10042000FF3010BD1AB1D30703D0521C07E00020E3
:1004300010BD10F8013B11F8014B1B1B07D110F840
:10044000013B11F8014B1B1B01D1921EF1D1184643
:1004500010BD032A40F2308010F0030C00F015802C
:1004600011F8013BBCF1020F624498BF11F801CBB7
:1004700000F8013B38BF11F8013BA2F1040298BF1C
:1004800000F801CB38BF00F8013B11F0030300F086
:10049000C780083AC0F0088051F8043B083A51F888
:1004A00004CBA0E80810F5E7121D5CBF51F8043B2F
:1004B00040F8043BAFF30080D20724BF11F8013BA2
:1004C00011F801CB48BF11F8012B24BF00F8013B04
:1004D00000F801CB48BF00F8012B70474FF0000235
:1004E00000B5134694469646203922BFA0E80C502A
:1004F000A0E80C50B1F12001BFF4F7AF090728BF05
:10050000A0E80C5048BF0CC05DF804EB890028BF80
:1005100040F8042B08BF704748BF20F8022B11F0A9
:10052000804F18BF00F8012B704770477047704725
:1005300000487047180000207047704770477047A8
:1005400038B504460A4600206946AFF3008000280B
:1005500008BF38BD02460099204600F097F80120F8
:1005600038BD012000F0ACB8F8B5AFF30080054607
:1005700000200C460C2000BF0646A819A0420DD949
:10058000324669460020AFF30080070008BF00F044
:1005900097F80098A04218BF0546C419FFF7C8FF96
:1005A00005600746F01D20F007004619284600F0B8
:1005B0000AF8B44208BFF8BDA21B31463868BDE84E
:1005C000F84000F063B800210160416070470C20E2
:1005D000704770B50446051FFFF7AAFF0068002C9E
:1005E00014BF446870BD002C18BFAC423CBF20460D
:1005F0006468F8D301680A18AA4218BF456003D19D
:100600002A6805461144016028684119A1421CBFAF
:100610006C6070BD6168696021680844286070BDC5
:1006200010B5203AC0F00B80B1E81850A0E818507F
:10063000B1E81850A0E81850203ABFF4F5AF5FEACF
:10064000027C24BFB1E81850A0E8185044BF18C974
:1006500018C0BDE810405FEA827C24BF51F8043B1B
:1006600040F8043B08BF7047D20728BF31F8023B6F
:1006700048BF11F8012B28BF20F8023B48BF00F803
:10068000012B704700487047100000200346406867
:100690008C46002818BF88423CBF03464068F8D308
:1006A00018681844884207D00CF1030020F00700B6
:1006B000001D411A521A0146081D0A60FFF789BF42
:1006C00010B500F039F8BDE8104000F02FB87047C1
:1006D0007546FFF7D7FFAE4605006946534620F042
:1006E0000700854618B020B5FFF7CEFDBDE82040D5
:1006F0004FF000064FF000074FF000084FF0000BDE
:10070000AC46ACE8C009ACE8C009ACE8C009ACE84C
:10071000C00921F007018D46704710B50446AFF3BC
:1007200000802046BDE81040FFF799BD002801D0A9
:1007300000F02AB87047000010B5012805D000214C
:1007400003A000F027F8012010BD09A1F8E7000080
:1007500053494752544D454D3A204F7574206F66AA
:100760002068656170206D656D6F72790000000012
:100770003A2048656170206D656D6F727920636FF6
:10078000727275707465640001491820ABBEFEE793
:100790002600020070B505460C460A2000E06D1CDC
:1007A00000F011F835B128780028F8D102E0641C77
:1007B00000F009F814B120780028F8D1BDE87040A5
:1007C0000A20AFF3008008B569468DF800000320C9
:1007D000ABBE08BDFEE700007047000072B600BF68
:1007E000FEE700002DE9F04F83B000F1200200F198
:1007F0003E4741F20005009207F1FF77C4F202057F
:1008000007224FEAB726A84208BF042200254FF06E
:1008100000084FF00009042E38BF4FEAB7220192BA
:100820000AE000BF09F1010908F10208B9F1100F4F
:1008300005F1040500F0A2800F68012202FA09FE0A
:1008400017EA0E0AEED0D1F804C003220CF0030719
:100850007E1E02FA08F4012E6FEA040B12D8846897
:10086000CE6804EA0B0406FA08F634438460446850
:1008700024EA0E06CCF3001404FA09F42643466079
:1008800004E000BF032F01D103271EE0C6688C6877
:1008900006EA0B0604FA08F42643022FC66014D1B8
:1008A0006FF00302009E02EA590756F807C005F0F0
:1008B0001C040F220B69A2402CEA0202A3401A4337
:1008C000F251D1F804C00CF00307026807FA08F3EC
:1008D00002EA0B021A431CF4403F0260A2D000223D
:1008E00043F644030292C4F202031A6843F600443A
:1008F00042F480421A601A68C4F2010402F4804291
:100900000292029A29F003024FF6084C2244CFF6D5
:10091000FF7C52F80C3005F00C070F26BE40B343A5
:10092000019E06FA07F73B4342F80C30A2684B6879
:1009300042EA0A0743F60C4CDE0258BF22EA0A07D5
:10094000A760C4F2010CDCF800209E0242EA0A070C
:1009500058BF22EA0A07CCF8007062689E0342EA98
:100960000A0758BF22EA0A0767602268DB0342EAE7
:100970000A0758BF22EA0A07276053E703B0BDE819
:10098000F08F0000002A08BF090481617047000051
:1009900040F29C50C2F2000000687047002804BF7B
:1009A00001207047F0B581B0044690F83D0028B9A9
:1009B000002084F83C00204600F090F9242084F8C0
:1009C0003D002068016821F001010160016841F4E7
:1009D00000410160016821F40041016000F024FB46
:1009E000636848F2A16CC0F2010C40F60011C0F23D
:1009F0003D0163453CBF48F28041C0F21E01884280
:100A000002D2012001B0F0BD4DF68361C4F21B316A
:100A1000A0FB01122168970CD1F804E04FF4967600
:100A20002EF03F0545EA92454D60774348F638166B
:100A30000D6AC0F24106A7FB067625F03F07634525
:100A400038BF960C721C3A430A62CA6948F2A06623
:100A50004CF6FF77C0F20106B34222EA07020BD838
:100A600001385B00B0FBF3F001306FF31F30042856
:100A700098BF04201BE000BFA768013857B11927B1
:100A80007B43B0FBF3F001306FF31F3070B100F522
:100A9000804007E003EB4303B0FBF3F001306FF35A
:100AA0001F3018B100F5004001E000BF01201043E5
:100AB000C8610868D4E9072320F0C0001043184338
:100AC0000860886848F2FF3204F10C0790438CCF2D
:100AD00018431043A6698860C86820F0FF003843B7
:100AE0003043C860086840F0010008600020202101
:100AF000206484F83D10206384F83E0001B0F0BD0E
:100B00002DE9F04383B01E46174689460446FFF799
:100B10003FFF94F83D10202924D10546206800BFEE
:100B2000816989071AD5FFF733FF411B20681A290D
:100B3000F6D381698907F3D500202021206384F84A
:100B40003D1084F83E00216C41F02001216484F8BE
:100B50003C00022003B0BDE8F08300BF94F83C10D5
:100B6000012903D1022003B0BDE8F083012184F8FC
:100B70003C100168C90703D1016841F0010101601F
:100B8000016840F2020821F400610160212184F82B
:100B90003D10102184F83E100021216467626685B3
:100BA000618DC0F201082185A8F10211E162E16ABC
:100BB0000A9E11F5803F18BF01291DD1016841F43B
:100BC0008071016020464FF00111002233460095EC
:100BD00000F0FAFD50B120680068C00544BF4FF432
:100BE00000702064012003B0BDE8F0832069B0F5F7
:100BF000804F07D1FE2015E00829DFD0216B122994
:100C0000DCD0DFE7062000EAD9102168F030086167
:100C100008F10601204632462B4600F0BBFE0028B4
:100C2000E0D1FF20216800EA090008612046414622
:100C300032462B4600F0AEFE0028D3D100200290B1
:100C400020684169029180690290029806E000BF25
:100C5000204631462A4600F059FD18BB208D68B366
:100C6000204631462A4600F001FFD8B9606A216863
:100C7000024612F8013B0B616262628D013A6285A5
:100C8000228D531E23854F697F07E1D51B04DFD0DA
:100C9000437802300B616062608D01386085901E80
:100CA0002085D5E7206C04289CD12068016841F498
:100CB00000710160012003B0BDE8F0832068016885
:100CC00041F400710160202084F83D00002084F888
:100CD0003E0084F83C0003B0BDE8F0832DE9F0430A
:100CE00087B040F20044C4F202040068A4F5D63193
:100CF00000268842CDE90566CDE90366029603D059
:100D000007B0BDE8F08300BF43F630070196C4F298
:100D10000207386802AD40F00200386038684FF0D2
:100D2000120800F00200019001984FF480600290D8
:100D300004204FF00309069020462946CDE903869A
:100D4000CDF81490FFF74EFD0820CDE902080920E8
:100D5000069020462946CDE90469FFF743FD019638
:100D6000386940F480003861386900F480000190EF
:100D7000019807B0BDE8F08340F2000040F29C51BA
:100D8000C2F20000C2F2000100780A681044086054
:100D90007047000080B543F60040C4F202000168CD
:100DA00041F400710160016841F4806101600168F3
:100DB00041F480710160032000F074F80F2000F00E
:100DC00005F800F027F8002080BD000070B540F263
:100DD0000006C2F2000640F208013278C2F20001B9
:100DE0004FF47A730968B3FBF2F20446B1FBF2F1F7
:100DF000084600F039FB0F2C4FF0010508D838B930
:100E00004FF0FF3021460022002500F01FF87460EB
:100E1000284670BD82B0002043F640010190C4F224
:100E200002014A6842F480424A604A6802F4804201
:100E30000192019A0090086840F0805008600868AC
:100E400000F080500090009802B0704710B54EF648
:100E50000C5CCEF2000CDCF80030C3F3022E8EF0F6
:100E60000704042C28BF0424BEF103034FF0FF3E07
:100E70000EFA04F438BF0023A14399400EFA03F39D
:100E80009A43114300F00F0200F160430901043A54
:100E900003F564436244002848BF02F10C03197053
:100EA00010BD00004EF60C51CEF200010A684FF65C
:100EB000FF031A4060F30A2242F0806040F0FD70A8
:100EC00008607047002804BF012070472DE9F041F9
:100ED00043F60808C4F202080446D8F8F8030D46A1
:100EE00000F00700884207D288F8F853D8F8F803D2
:100EF00000F00700A84277D12068810717D5410785
:100F000005D5D8F8001041F4E051C8F800100107E9
:100F100005D5D8F8001041F46041C8F80010D8F8A1
:100F20000010A26821F0F0011143C8F80010C007BA
:100F300040D1D8F8F80300F00700A84207D988F894
:100F4000F853D8F8F80300F00700A8424CD1206805
:100F5000410707D5D8F80010E26821F4E0511143A9
:100F6000C8F80010000708D5D8F80000216920F45F
:100F7000604040EAC100C8F8000000F069F8D8F805
:100F8000001043F2D622C1F30311C0F60002515CF7
:100F900040F2080220FA01F140F20400C2F200001F
:100FA0000068C2F200021160FFF710FF0020BDE8E8
:100FB000F08100BF6068811E022907D258F8081C22
:100FC00089015CBF0120BDE8F08111E0012807D153
:100FD00058F8081C89035CBF0120BDE8F08107E0D8
:100FE00058F8081C890703D40120BDE8F08100BF30
:100FF000D8F8001021F003010843C8F80000FFF7FB
:10100000C7FC064641F28837D8F80000616800F056
:101010000C00B0EB810F8CD0FFF7BAFC801BB842FC
:10102000F2D90320BDE8F08140F2080043F6080140
:10103000C2F20000C4F202010068096843F2E6222D
:10104000C1F38221C0F60002515CC8407047000025
:1010500010B543F60404C4F20204606800F00C000A
:1010600008280BD0042819BF42F20040C0F2F40057
:1010700047F64000C0F27D1010BD00BF2068216817
:101080002368490247F64001C0F27D1100F03F029B
:10109000C3F388105CBF42F20041C0F2F401A1FB2F
:1010A00000010023FFF731F921680222C1F3014159
:1010B00002EB4101B0FBF1F010BD0000002804BFBD
:1010C000012070472DE9F04182B00446007843F6D4
:1010D0000006C007C4F202060CD0B06800F00C0095
:1010E000042840F081803068800303D560680028C0
:1010F00000F06881207880071BD5B06810F00C0FD5
:1011000009D0B06800F00C00082840F087807068B3
:10111000400200F183803068800703D5E068012831
:1011200040F050813068216920F0F80040EAC100A9
:1011300030602078000713D4207840072AD4A569AE
:10114000002D00F03A81B06800F00C00082840F053
:10115000A580012D40F00E81012002B0BDE8F08194
:101160006069002800F082800020C4F2472001213D
:10117000C0F8801EFFF70CFC054600BF706F8007AB
:10118000DAD4FFF705FC401B0228F7D9032002B090
:10119000BDE8F081306C5FEAC0080AD400200190FD
:1011A000306C40F080503064306C00F08050019022
:1011B000019847F20007C4F200073868C00547D419
:1011C000386840F480703860FFF7E2FB054600BFE6
:1011D0003868C0053CD4FFF7DBFB401B0228F7D979
:1011E000032002B0BDE8F081B06800F00C000828D0
:1011F00003D1706840023FF576AF61683068B1F5A1
:10120000803F07D0B1F5A02F40F09A8040F48020B5
:101210003060306840F4803030609AE0E068002848
:1012200040F20000C4F247205CD001210160FFF7CA
:10123000AFFB0546306880073FF574AFFFF7A8FBAA
:10124000401B0228F6D9032002B0BDE8F08100BFA0
:10125000A168306F012905D0052955D140F004005F
:101260003067306F40F00100306756E00020C4F274
:1012700047200021C0F8801EFFF78AFB054600BF0B
:10128000706F80077FF558AFFFF782FB401B022885
:10129000F6D9032002B0BDE8F08100BF0027C4F2F8
:1012A000472700203866FFF773FB022D05460DD156
:1012B0003068800140F18A80FFF76AFB401B0228FA
:1012C0004FF00300F4D902B0BDE8F081306880012E
:1012D00073D5FFF75DFB401B02284FF00300F5D9E3
:1012E000F1E700BF00210160FFF752FB054600BF98
:1012F000306880077FF51DAFFFF74AFB401B0228CF
:101300004FF00300F4D9DEE720F001003067306FC2
:10131000002920F0040030677AD0FFF739FB05463A
:1013200041F28837306F800700F18480FFF730FB8F
:10133000401BB842F6D9032002B0BDE8F08100BFDF
:1013400020F4803030603068002920F48020306044
:101350007AD0FFF71DFB0546306880033FF5CAAE23
:10136000FFF716FB401B6428F6D9032002B0BDE846
:10137000F08100BF7068E16900F480028A4221D1E7
:10138000216A00F03F028A421CD147F6C071626AAE
:101390000140B1EB821F15D1A16A4FF6FF73C9035B
:1013A000994300F44032A1F580318A420AD1E16AC2
:1013B00000F07060B0EB016F04D1002002B0BDE816
:1013C000F08100BF012002B0BDE8F08104F11C05EE
:1013D0002FCD084340EA8210D9034FF6FF729143A4
:1013E000A1F5803140EA056008437060012038664D
:1013F000FFF7CEFA044600BF30688001DDD4FFF766
:10140000C7FA001B02284FF00300F5D95BE700BFC5
:10141000FFF7BEFA054641F2883700BF306F8007FC
:1014200008D5FFF7B5FA401BB8424FF00300F5D9D5
:1014300049E700BFB8F1000F3FF581AE306C20F0F6
:10144000805030647BE600BFFFF7A2FA054600BF7C
:10145000306880037FF54EAEFFF79AFA401B642890
:101460004FF00300F4D92EE7411E0020B0EB116FBE
:101470001CBF012070474EF21002CEF200025160F4
:101480004EF62351CEF20001F0230B70072190603D
:101490001160704790F83C20012A4FF0020241D0C1
:1014A00010B580F83D200268D2F804E0D2F808C0F8
:1014B0000C682EF07003234340F6FF34C4F200049E
:1014C000A242536010DCB2F1804F1ED040F20043C4
:1014D000C4F200039A4218D040F60003C4F200039D
:1014E0009A4212D016E000BF40F60043C4F2000357
:1014F0009A420AD044F20003C4F201039A4204D093
:101500000023C4F201039A4204D149682CF08003FD
:10151000194391600121002280F83D1080F83C20A1
:10152000BDE8104010467047002804BF01207047F6
:101530002DE9F047044690F83D000D4628B90020FB
:1015400084F83C00204600F049F8022084F83D0071
:10155000206844F20702816891438160211D01F0F7
:101560005DFD20684FF6FF7881688269D0F820C061
:10157000D5E9003ED5E9026A43EA0109AB6922EAEE
:10158000080246EA03234FF6FC46B343D5E9076752
:1015900042EA0A0229691A4342EA062242EA011192
:1015A0002CF0AA026B6942EA0E0241EA073142EAD4
:1015B0000312C0F8089081610262012084F846009D
:1015C00084F83E0084F83F0084F8420084F8430029
:1015D00084F83D000020BDE8F087000080B586B0AB
:1015E00000210068C4F20101002288420592CDE981
:1015F00003220292019201D006B080BD43F6300072
:101600000092C4F20200436943F00103436143695D
:1016100003F001030093009B0092036843F0010371
:101620000360006800F00100009000984FF44070E3
:1016300001900220CDE902020120059001F58030E1
:1016400001A90492FFF7CEF806B080BD80B590F8EE
:101650003E2090F83F3090F842E090F843C00429D3
:101660000AD0B9B9012A4FF0010208BFBEF1010F3B
:1016700034D0104680BD00BF012B4FF0010208BFDF
:10168000BCF1010FF5D1022180F83F1080F8431022
:1016900000681EE0012A4FF0010208BF012BE8D1CB
:1016A000BEF1010FE5D1BCF1010FE2D1022280F8B9
:1016B0003E2080F83F2080F8422080F8432091B1FE
:1016C0000068016A21F001010162016A41F0010133
:1016D000016210216FF0100209E000BF022180F8C2
:1016E0003E1080F84210006801216FF00102036A89
:1016F0001A400262026A114301620168002241F04D
:1017000001010160104680BDFEE7000070B503686E
:10171000044653F8140F400711D40E46481C29D034
:1017200086BB00BF1868400527D4FFF731F923684E
:1017300053F8140F400737D518684007F2D500203A
:1017400070BD00BF18684007F9D41868400514D46C
:1017500018684007F3D4186840050ED4186840078D
:10176000EDD41868400508D4186840074FF0000011
:1017700048BF70BD18684005E4D56FF480601860FC
:10178000042012E0154603E053F8140F4007D6D4A6
:1017900018684005F1D4FFF7FBF8401B2368B042FE
:1017A000F2D958694007EFD420200021202221637C
:1017B00084F83D2084F83E10226C10432064012000
:1017C00084F83C1070BD00002DE9F041054600682A
:1017D0001E46144601F47F0201338FB242D0DDF879
:1017E0001880B2F5803F40F0878040693840C01BC8
:1017F000B0FA80F04009A04240F0C8804EB924E021
:1018000040693840C01BB0FA80F04009A04240F067
:10181000BD80FFF7BDF8A0EB08012868B142EFD901
:1018200041693940C91BB1FA81F14909A142E7D1A7
:101830009BE000BF40693840C01BB0FA80F040090F
:10184000A0424FF0000040F0A280FFF7A1F8286806
:1018500041693940C91BB1FA81F14909A142E9D175
:1018600083E000BFB2F5803F24D100BF4169394019
:10187000C91BB1FA81F14909A14240F08780416951
:101880003940C91BB1FA81F14909A14240F07E807B
:1018900041693940C91BB1FA81F14909A14275D1A9
:1018A00041693940C91BB1FA81F14909A142DDD032
:1018B0006CE000BF81693940C91BB1FA81F1490967
:1018C000A14263D181693940C91BB1FA81F149094B
:1018D000A1425BD181693940C91BB1FA81F1490943
:1018E000A14253D181693940C91BB1FA81F149093B
:1018F000A142DFD04AE000BF80693840C01BB0FA87
:1019000080F04009A04241D146B923E080693840C7
:10191000C01BB0FA80F04009A04237D1FFF738F879
:10192000A0EB08012868B142F0D981693940C91B90
:10193000B1FA81F14909A142E8D116E08069384045
:10194000C01BB0FA80F04009A0424FF0000018BF61
:10195000BDE8F081FFF71CF8286881693940C91B90
:10196000B1FA81F14909A142E8D100202021286380
:1019700085F83D1085F83E00296C41F0200129646E
:1019800085F83C000120BDE8F08100BF0020BDE8E3
:10199000F0810000F0B581B0044600681D4643693F
:1019A0008FB203EA0701B94202D1002001B0F0BDB5
:1019B0004169164601323CD0490512D47EB300BFBE
:1019C000FEF7E6FF411B2068B14203D94169394067
:1019D000B9422BD141693940B942E6D04169490544
:1019E000EED5016841F4007101606FF480614161DE
:1019F000042000212022216384F83D2084F83E1039
:101A0000226C1043206484F83C10012001B0F0BD2A
:101A100041693940B942C8D041694905E1D4FEF76E
:101A2000B7FF206841693940B942F1D02020E0E792
:101A300041694905D5D441693940B942B5D04169B8
:101A40004905CED441693940B942AED04169490512
:101A5000C7D441693940B942A7D041694905C0D4CA
:101A600041693940B942E3D19FE7000070B503688E
:101A7000044653F8140F000611D40E46481C29D012
:101A800086BB00BF1868400527D4FEF781FF236896
:101A900053F8140F000637D518680006F2D5002059
:101AA00070BD00BF18680006F9D41868400514D44A
:101AB00018680006F3D4186840050ED418680006AC
:101AC000EDD41868400508D4186800064FF00000EF
:101AD00048BF70BD18684005E4D56FF48060186099
:101AE000042012E0154603E053F8140F0006D6D484
:101AF00018684005F1D4FEF74BFF401B2368B04245
:101B0000F2D958690006EFD4202000212022216359
:101B100084F83D2084F83E10226C1043206401209C
:101B200084F83C1070BD0000F0B587B0002643F685
:101B300030000696CDE90466CDE902660196C4F24E
:101B40000200016840F6000441F0040101600168F0
:101B5000C4F2020401F004010191019901960168A7
:101B6000012241F08001016001684FF4005501F04D
:101B700080010191019901960168012741F001015D
:101B80000160016801F0010101910199019601686C
:101B900041F00201016000684FF4005100F00200C2
:101BA000019001982046FEF7EDFECDE9025702AD07
:101BB00020462946CDE90466FEF714FE0720029070
:101BC0004FF48810CDE90306A4F500602946FEF71E
:101BD00009FE07B0F0BD000080B540F2F84045F6C0
:101BE0000001C2F20000C4F2000141F6802200238D
:101BF0004FF4804CC0F2060280E80E00C0E9033CBE
:101C0000C0E90533C0E90733FEF7C8FE002808BF66
:101C100080BDBDE88040FEF7E1BD000010B58CB08E
:101C200040F2505000210024C2F20000C4F2010131
:101C30004FF6FF72C0E900140121C0E90242CDE96C
:101C40000314CDE905140F22CDE9091403A9CDE948
:101C50000044C0E904448461CDE907240B92FFF7F6
:101C600063FC002818BFFEF7B9FD40F25050C2F2E5
:101C700000006946CDE90044FFF70CFC002818BFBE
:101C8000FEF7ACFD0CB010BDFEE70000FEE7000063
:101C9000002B08BF70472DE9F04381B00646DDF800
:101CA000208010441C4689460025C7B205EB090078
:101CB000C1B230463A460B46CDF8008000F016F827
:101CC0000135E8B2A042F1D301B0BDE8F04370475E
:101CD00010B582B0D2F804E09C461378547872466E
:101CE000CDE9004C00F018FC02B010BD2DE9F04F1A
:101CF000099E90424AD11A46994288BF0A4638BF87
:101D00000B4641B2B1F1FF3F1ADD40F274070121E9
:101D1000C2F2000726B929E00133DEB2964251D85B
:101D2000DEB23F2EF8D803F0F80607EB061603F0F4
:101D30000705345C01FA05F524EA05053554EBE79F
:101D4000581CC0B290423DD8981CC0B2904239D8BD
:101D5000D81CC0B2904235D80433D8B29042EFD9E3
:101D600030E000BF0133DEB296422BD8DEB23F2E08
:101D7000F8D803F0F80607EB061603F00705345C05
:101D800001FA05F525433554ECE700BF99421BD114
:101D90009042114688BF014638BF0246402BC0F032
:101DA0007D8000BF501CC0B288420BD8901CC0B2CE
:101DB000884207D8D01CC0B2884203D80432D0B2BF
:101DC0008842EFD9BDE8F08FA2EB000CA3EB010E27
:101DD000BCF1010F4FF0010B4FF0010AB8BF4FF0FB
:101DE000FF3BBEF1010FB8BF4FF0FF3ABCF1000F4F
:101DF00048BFCCF1000CBEF1000F48BFCEF1000E81
:101E0000F44540F28B8040F2740900234FF0010842
:101E1000C2F2000976B92FE00EFA83F31C0458448D
:101E2000BCEBE43F04B21DB2DCBF5144A5EB0C0394
:101E30009442C7D00406EFD4CEB23F2EECD806F0C1
:101E40000705C1F3C406C4B209EBC616375D08FA2C
:101E500005F527EA05053555DEE700BF0EFA83F3E1
:101E60001C045844BCEBE43F04B21DB2DCBF514437
:101E7000A5EB0C039442A5D00406EFD4CEB23F2EBE
:101E8000ECD806F00705C1F3C406C4B209EBC616C8
:101E9000375D08FA05F53D433555DFE703F00700E8
:101EA000012707FA00F0002E4FEAD30300F08480E8
:101EB00040F27407C2F20007C04307EBC31304E00B
:101EC0000432D7B28F423FF67DAF57B2002F03D412
:101ED000D7B2DE5D0640DE55561CF7B28F423FF6A4
:101EE00071AF76B2002E02D4DE5D0640DE55961C40
:101EF000F7B28F423FF666AF76B2002E02D4DE5DB7
:101F00000640DE55D61CF7B28F423FF65BAF76B285
:101F1000002ED5D4DE5D0640DE55D1E740F27409CF
:101F200000224FF00108C2F2000986B931E000BF7B
:101F30000CFA82F214045144BEEBE43F0CB215B229
:101F4000DCBF5844A5EB0E029C423FF43BAF0406B5
:101F5000EED4CEB23F2EEBD806F00705C1F3C4068F
:101F6000C4B209EBC616375D08FA05F527EA050580
:101F70003555DDE70CFA82F214045144BEEBE43F20
:101F80000CB215B2DCBF5844A5EB0E029C423FF4E4
:101F900019AF0606EED4CEB23F2EEBD8C1F3C4047F
:101FA000C7B209EBC41406F00706E55D08FA06F6A9
:101FB0003543E555DEE700BF40F27407C2F2000783
:101FC00007EBC31305E000BF0432D7B28F423FF6E0
:101FD000F9AE57B2002F03D4D7B2DE5D0643DE550B
:101FE000561CF7B28F423FF6EDAE76B2002E02D409
:101FF000DE5D0643DE55961CF7B28F423FF6E2AE39
:1020000076B2002E02D4DE5D0643DE55D61CF7B252
:102010008F4288BFBDE8F08F76B2002ED4D4DE5D4B
:102020000643DE55D0E700002DE9F04182B00646B8
:102030001044DDF82080C5B21F4630462A460B46C4
:102040000C46CDF80080FFF751FE3819C7B2304674
:1020500039462A463B46CDF80080FFF747FE30461A
:10206000214632463B46CDF80080FFF73FFE28462A
:1020700021462A463B46CDF80080FFF737FE02B0E6
:10208000BDE8F0812DE9F04381B040F2744440F2A4
:10209000F845C2F20004AE20C2F2000560704FF0B5
:1020A000FF3628467821224602230096FEF728FDB7
:1020B0004FF02008284678212246022384F8018028
:1020C0000096FEF71DFD10272846782122460223A0
:1020D00067700096FEF714FDB020607028467821E6
:1020E000224602230096FEF70BFDC82060702846AA
:1020F0007821224602230096FEF702FD4FF00009E8
:10210000284678212246022384F801900096FEF7A3
:10211000F7FC284678212246022367700096FEF7D6
:10212000EFFC40206070284678212246022300966A
:10213000FEF7E6FC812060702846782122460223C3
:102140000096FEF7DDFCDF206070284678212246ED
:1021500002230096FEF7D4FCA12060702846782167
:10216000224602230096FEF7CBFCA620607028468C
:102170007821224602230096FEF7C2FCA820607058
:1021800028467821224602230096FEF7B9FC3F201C
:10219000607028467821224602230096FEF7B0FCA4
:1021A000A420607028467821224602230096FEF77C
:1021B000A7FCD3206070284678212246022300968F
:1021C000FEF79EFC284678212246022384F80190DF
:1021D0000096FEF795FCD5206070284678212246AF
:1021E00002230096FEF78CFCF020607028467821D0
:1021F000224602230096FEF783FCD9206070284611
:102200007821224602230096FEF77AFC2220607095
:1022100028467821224602230096FEF771FCDA2038
:10222000607028467821224602230096FEF768FC5B
:102230001220607028467821224602230096FEF77D
:102240005FFCDB206070284678212246022300963E
:10225000FEF756FC284678212246022384F80180A6
:102260000096FEF74DFC8D206070284678212246AE
:1022700002230096FEF744FC142060702846782163
:10228000224602230096FEF73BFC40F27400C2F2A5
:1022900000004FF48061FEF721F900F039FCAF2017
:1022A000607028467821224602230096FEF728FC1B
:1022B00001B0BDE8F083000080B540F27400C2F2C6
:1022C00000004FF48061FEF709F980BD2DE9F04F61
:1022D00087B092F800900492B9F1000F039100F0DA
:1022E00097800446581C0290187859780730C00827
:1022F00048430430049D9A465FFA80FB4FF0000883
:102300001AE000BF221D069CBA463D787B780399EF
:10231000109FE0B2CDE9005700F0FEF80298B044FB
:10232000049A1FFA88F1007812F801900444B9F178
:10233000000F12FA88F56BD04FFA89F1B1F1FF3F27
:10234000CDE9051408DD012657469AF808A0BAF130
:10235000000F25D131E000BF09F0E000C02807D10F
:10236000022657469AF808A0BAF1000F18D124E0C7
:1023700009F0F000E02807D1032657469AF808A094
:10238000BAF1000F0CD118E009F0F800F0283FD1A5
:10239000042657469AF808A0BAF1000F0DD000BFE6
:1023A0007C6800BF284621463246FEF726F8002802
:1023B000A8D0BAF1010A5C44F4D1F86805994268E2
:1023C000BA46002916D406784378A9F12001F01DF9
:1023D000C0085943069C01FB00220399109FE0B2FC
:1023E000CDE9006700F098F8DAF80C00012601301A
:1023F00095E700BF069C057843780399109FE0B2EB
:10240000CDE9005700F088F8DAF80C00013086E7D3
:1024100007B0BDE8F08F00002DE9F04F01F0070C88
:10242000DDF824E003EB0C04092C4FEAD10847D374
:1024300045B2002D20D43F291ED8CCF1080BFF2334
:1024400023FA0BF940F27403C2F2000302FA0CF60D
:1024500003EBC813BEF1000F18BFF64313F800A03A
:1024600046EA09070AEA07096FF0FF0747FA0BF780
:102470003E4046EA09061E54002D4BD4372949D860
:1024800004F1F703CCF10807FA40DBB24FF4FF7711
:1024900007FA03F340F2740708F10101C2F20007E2
:1024A00007EBC111BEF1000F18BFD2430F5C42EA27
:1024B000030637409A433A430A54BDE8F08F00BF01
:1024C00043B2002B26D43F2988BFBDE8F08F611EA0
:1024D000C9B24FF4FF7340F2740603FA01F1CCF174
:1024E0000803FF27C2F2000602FA0CF2DF4006EBF7
:1024F000C816BEF1000F18BFD2431743355C0F4317
:102500002F406FF0FF0545FA03F323EA0101114064
:1025100039433154BDE8F08F2DE9F04F97B0002BCF
:102520000692129100F0F082DDE920298246B9F18D
:10253000000F48461D464FEAD20318BF4FF0FF3048
:10254000082A02F00708169004D2B8F1000F40F0F4
:10255000C082D9E21298CDF80C8010F00708A3F1E0
:102560000100059003F00300089005EB4500109072
:102570004FEA850002931190079500F0C781C8F1DA
:102580000801FF20C84014906FF0FF00084113902D
:10259000A8F101000F91C0B24FF4FF7101FA00F0F1
:1025A0000E90C0430D9068000A901C2000EAD200F3
:1025B000404200210C900995CDF85480CDF810A030
:1025C0000FE000BF10980B99013010900A9801316C
:1025D00001300A900998A94200F10100099000F029
:1025E0006F8201EB0A000B9141B240F2740E002998
:1025F000C2F2000EE6D405995FFA80FB032905D2EA
:1026000000240898002840F0DD80DBE7069C0325C5
:1026100008E000BF0C9804352844032811980444AE
:1026200000F0C880129800EBC50AAAF11800C1B2E8
:102630003F2930D80B98CA0814F8009015980EEB73
:10264000C21309FA00F61698149F464013F80BE0DF
:10265000139846EA070C0EEA0C0740F2740E064087
:10266000DDF85480C2F2000E3743372903F80B70AF
:1026700011D8511C0F9A0EEBC11129FA02F0169ACB
:102680000E9B504011F80B2003431A400D9B18403D
:10269000104301F80B00AAF11000C1B23F2929D85C
:1026A0000998CA0814F800C016980CFA08F34340B9
:1026B0000EEBC217149817F80B6018433040139EA6
:1026C000DDF8548033401843372907F80B0011D840
:1026D0000F99501C169A2CFA01F10EEBC0100E9BAC
:1026E000514010F80B200B431A400D9B1940114329
:1026F00000F80B10AAF10800C1B23F2929D80A98A6
:10270000CA0814F800C016980CFA08F343400EEB00
:10271000C217149817F80B6018433040139EDDF869
:10272000548033401843372907F80B0011D80F990C
:10273000501C169A2CFA01F10EEBC0100E9B514062
:1027400010F80B200B431A400D9B1940114300F861
:102750000B105FFA8AF13F293FF65CAF1098CA0868
:1027600014F800C016980CFA08F343400EEBC21799
:10277000149817F80B6018433040139EDDF854800E
:1027800033401843372907F80B003FF643AF0F9942
:10279000501C169A2CFA01F10EEBC0100E9B514002
:1027A00010F80B200B431A400D9B1940114300F801
:1027B0000B102FE7EC1EDDF810A0079D08980028ED
:1027C0003FF400AF1298069900EBC4000B9AC0B218
:1027D0003F2801EB020C2BD804FB05F11CF80190FB
:1027E000C208169909FA08F30EEBC217149D4B4064
:1027F00017F80B6013991D432E40079D0B40DDF821
:1028000054803343372807F80B3011D8501C0F9AE7
:102810000EEBC01029FA02F1169A0E9B514010F8E7
:102820000B200B431A400D9B1940114300F80B106D
:10283000089801283FF4C6AE1298611C00EBC10055
:10284000C0B23F282AD869431CF80190C2081699E3
:1028500009FA08F30EEBC217149D4B4017F80B60F2
:1028600013991D432E40079D0B40DDF854803343E0
:10287000372807F80B3011D8501C0F9A0EEBC010F8
:1028800029FA02F1169A0E9B514010F80B200B43C7
:102890001A400D9B1940114300F80B1008980228AC
:1028A0003FF490AE1298A11C00EBC100C0B23F28CB
:1028B0003FF688AE69431CF80110169FC20801FA62
:1028C00008F37B400EEBC217149D17F80B60139CA6
:1028D0001D432E40079D2340DDF8548033433728A5
:1028E00007F80B303FF66EAE501C0F9A0EEBC0107F
:1028F000D140169A0E9B514010F80B200B431A4002
:102900000D9B1940114300F80B105BE61C2000EAF8
:10291000D2004FEA450EC0F1000C0024A9460AE09F
:102920001098013401300EF1010EAC4209F1010999
:10293000109000F0C58004EB0A0041B20029EFD4EA
:102940000599C3B2032905D20020089900296BD14B
:10295000E6E700BF0698032207E000BF04320CEB55
:10296000020103291199084458D0129901EBC201C0
:10297000A1F11805EEB23F2E0ED9A1F11005EEB26D
:102980003F2E1AD9A1F10805EEB23F2E27D9CDB2BC
:102990003F2DE3D833E000BF065D169F05F0F80534
:1029A0007E4040F27407C2F2000707EB0515EE54B3
:1029B000A1F11005EEB23F2EE4D810F80960169F81
:1029C00005F0F8057E4040F27407C2F2000707EBFD
:1029D0000515EE54A1F10805EEB23F2ED7D810F838
:1029E0000E60169F05F0F8057E4040F27407C2F2B3
:1029F000000707EB0515EE54CDB23F2DAED8109D64
:102A0000169E455D01F0F801754040F27406C2F271
:102A1000000606EB0111CD54A0E700BF079DD01EB4
:102A2000089900293FF47CAF129901EBC002D1B2A2
:102A30003F29069921440ED8079D169E45434D5DBA
:102A400002F0F802754040F27406C2F2000606EB8E
:102A50000212D554079D089A012A3FF461AF129AD9
:102A6000451C02EBC502D6B23F2E0DD8079E02F0E0
:102A7000F80275434D5D169E754040F27406C2F231
:102A8000000606EB0212D554089A079D022A3FF46D
:102A900047AF821C129800EBC200C5B23F2D079DC4
:102AA0003FF63EAF6A43895C169A00F0F800514049
:102AB00040F27402C2F2000202EB0010C1542FE790
:102AC000DDF80C80DDE92029029BB8F1000F1BD056
:102AD000D5B1129902F0F80001440698CEB213FB6A
:102AE00005046D424FF0FF30471C2044427807EB4D
:102AF0000A00C0B231464346CDF80090FFF78CFC87
:102B0000E81901303846EFD117B0BDE8F08F00006A
:102B10002DE9F04F81B040F27648C2F20008402023
:102B2000454640F2744740F2F84605F8010BC2F200
:102B30000007B020C2F2000678704FF0FF34304634
:102B400078213A4602230094FDF7DAFF4FF0000A9D
:102B5000304678213A46022387F801A00094FDF719
:102B6000CFFF4FF0100B304678213A46022387F80A
:102B700001B00094FDF7C4FF40F27409C2F20009ED
:102B8000284649468022FDF764FC304678214246BB
:102B900081230094FDF7B4FFB1207870304678218E
:102BA0003A4602230094FDF7ABFF304678213A46BF
:102BB000022387F801A00094FDF7A2FF3046782198
:102BC0003A46022387F801B00094FDF799FF09F116
:102BD000800128468022FDF73CFC304678214246A1
:102BE00081230094FDF78CFFB22078703046782165
:102BF0003A4602230094FDF783FF304678213A4697
:102C0000022387F801A00094FDF77AFF304678216F
:102C10003A46022387F801B00094FDF771FF09F5E9
:102C2000807128468022FDF714FC30467821424608
:102C300081230094FDF764FFB3207870304678213B
:102C40003A4602230094FDF75BFF304678213A466E
:102C5000022387F801A00094FDF752FF3046782147
:102C60003A46022387F801B00094FDF749FF09F5C1
:102C7000C07128468022FDF7ECFB304678214246A1
:102C800081230094FDF73CFFB42078703046782112
:102C90003A4602230094FDF733FF304678213A4646
:102CA000022387F801A00094FDF72AFF304678211F
:102CB0003A46022387F801B00094FDF721FF09F599
:102CC000007128468022FDF7C4FB30467821424639
:102CD00081230094FDF714FFB520787030467821E9
:102CE0003A4602230094FDF70BFF304678213A461E
:102CF000022387F801A00094FDF702FF30467821F7
:102D00003A46022387F801B00094FDF7F9FE09F571
:102D1000207128468022FDF79CFB304678214246F0
:102D200081230094FDF7ECFEB620787030467821C0
:102D30003A4602230094FDF7E3FE304678213A46F6
:102D4000022387F801A00094FDF7DAFE30467821CF
:102D50003A46022387F801B00094FDF7D1FE09F549
:102D6000407128468022FDF774FB304678214246A8
:102D700081230094FDF7C4FEB72078703046782197
:102D80003A4602230094FDF7BBFE304678213A46CE
:102D9000022387F801A00094FDF7B2FE30467821A7
:102DA0003A46022387F801B00094FDF7A9FE09F521
:102DB000607128468022FDF74CFB30467821424660
:102DC00081230094FDF79CFE01B0BDE8F08F000068
:102DD000F0B581B00646182014460D46FDF766FA98
:102DE000074685704660A800FDF760FA0021C7E934
:102DF0000211386138467C6101B0F0BD2DE9F04325
:102E000081B00446FFF758FA626843F6242300268F
:102E1000C0F60003002000210096FFF757FAA178C2
:102E20002088884220D243F624296FF003074FF010
:102E30001008C0F60009002521694B4601EB80000F
:102E400038444068426808EB0510C1B21020009673
:102E5000FFF73CFAA17820880135EAB2091A9142BD
:102E600007F10407E8DC2E01A2684AB143F62423E7
:102E70000027F1B2C0F6000300200097FFF726FA02
:102E8000E2688AB143F61C20C0F6000000780023F7
:102E9000C0F1800081B200EBD130C0F347001021B7
:102EA000FEF716FFE06860B9A06850B943F6242326
:102EB000002719A2C0F60003042010210097FFF795
:102EC00005FAA07810B300256F20002110223F23BF
:102ED0000095FFF7A9F820880021013000EE100AC4
:102EE000A078B8EEC00A01EE100AB8EE411A80EEE2
:102EF000010A9FED0A1A6F201022009520EE010AA8
:102F0000BDEEC00A10EE103AFEF7C2FE01B0BDE8F9
:102F1000F043FFF7FDBD00BF3E00000000007C4213
:102F200040F25051C2F20001D1F800C0DCF8242078
:102F30008378C2F34F0199424FEA5201018022BFC8
:102F40000021CCF82410018070470000C160704758
:102F5000816070477047000070470000FDF70CBFAC
:102F600070B592B006AC20463021FDF7B7FA0025C7
:102F700043F640000595CDE90355CDE9015500958F
:102F8000C4F202000168022641F08051016000682D
:102F900000F080500090009847F200000095C4F2C5
:102FA0000000016841F440410160006800F44040C5
:102FB00000900098012006904FF4803007904FF465
:102FC00080000D900C200E906020CDE90F060420AB
:102FD000119020460C96FEF771F818B172B600BF3A
:102FE000FEE700BF0F20CDE901064FF48050CDE988
:102FF000040501A803210395FDF764FF10B172B623
:10300000FEE700BF12B070BD4EF68850CEF2000051
:10301000016841F4700101607047000010B540F292
:10302000FF7E0368C4F2000E40F2000C7045C4F24B
:10303000010C1DDD40F60002C4F20002904220D0D7
:1030400060451ED040F60042C4F20002904218D003
:103050004FF6FF72C4F2000290421CDC704525DC82
:10306000B0F1804F3AD040F20042C4F2000233E0A7
:10307000B0F1804F05D040F20042C4F2000290420D
:10308000E6D14A6823F0700313434FF6FF72C4F28F
:1030900000029042E2DD44F2FF32C4F201029042AB
:1030A00010DC60451AD044F2000213E040F6000242
:1030B000C4F20002904211D040F60042C4F2000275
:1030C0000AE000BF44F60002C4F20102904205D0BB
:1030D00044F20042C4F20102904203D1CA6823F4D0
:1030E0004073134323F080024B69D1F800E08C68F1
:1030F0001A4360450260C462C0F828E002D1096941
:10310000CCF83010012141610169C90708BF10BD29
:10311000016921F00101016110BD0000FEE700001E
:1031200050A0042100220024FFF752FE40F24C552B
:10313000C2F20005024628604CA00221FFF748FEBB
:103140002968096908602A684AA00021FFF740FE43
:103150002A681169486049A00021FFF739FE2A68F2
:103160001169886047A00221FFF732FE29680A69C9
:10317000D06008694961026844A00021FFF728FE79
:1031800029680969096809690860286800210069D7
:10319000026840A0FFF71CFE29680A6912681269DC
:1031A000506008693DA14068FFF7D2FE286843F6E9
:1031B0001C210069C0F600018068FFF7C7FE28687F
:1031C00040F298560069C2F20006C26836A000219B
:1031D0003260FFF7FDFD316809690860326835A08B
:1031E0000021FFF7F5FD31682A68096932604860FF
:1031F000FDF7D0FDFFF7B4FEFEF796FCFEF7ECFC02
:10320000FEF70CFD40F25050C2F200003C21FEF7E8
:103210001DFAFEF737FFFFF74FF8FFF779FC40F292
:103220007005C2F2000500BFFFF746F83068FFF7EF
:1032300077FE3068FFF7E2FDFFF76AFC2878012887
:1032400008D13068817829B1016900882C7051F863
:103250002000306068780128E6D130686C704069E1
:103260003060E1E7486F6D65000000004C697374E1
:10327000000000005465787400000000496D61672B
:10328000650000004F7074696F6E73006C69657340
:103290002D3E31006C6973742D3E320048656C6CB4
:1032A0006F20576F726C64004C616E677561676563
:1032B00000000000466F6E7400000000F1EE100A7E
:1032C0004FF6FF71C0F2C03120EA010040F04070BB
:1032D000E1EE100A7047000000000000000001024B
:1032E00003040607080900000000010203040000AF
:1032F00010080000F8320008000000000000000084
:103300000000000000000000000000F800000000C5
:10331000000000333000000000100C06100C060006
:10332000000000000000000040C07840C07840006D
:10333000043F04043F040400007088FC08300000CF
:10334000001820FF211E0000F008F000E018000027
:1033500000211C031E211E0000F0088870000000E0
:103360001E2123241927211010160E000000000032
:103370000000000000000000000000E0180402004F
:10338000000000071820400000020418E0000000C0
:103390000040201807000000404080F080404000BE
:1033A0000202010F01020200000000F00000000014
:1033B0000101011F010101000000000000000000E8
:1033C00080B070000000000000000000000000005D
:1033D00000010101010101010000000000000000E6
:1033E0000030300000000000000000008060180481
:1033F000006018060100000000E010080810E0005E
:10340000000F102020100F00001010F80000000026
:103410000020203F2020000000700808088870006D
:1034200000302824222130000030088888483000ED
:103430000018202020110E000000C02010F800000D
:1034400000070424243F240000F8088888080800A6
:103450000019212020110E0000E0108888180000BB
:10346000000F112020110E0000380808C83808008D
:103470000000003F0000000000708808088870000D
:10348000001C222121221C0000E010080810E0008E
:103490000000312222110F00000000C0C000000017
:1034A000000000303000000000000080000000003C
:1034B0000000806000000000000080402010080034
:1034C00000010204081020004040404040404000FD
:1034D00004040404040404000008102040800000D8
:1034E0000020100804020100007048080808F000DD
:1034F0000000003036010000C030C828E810E000AD
:103500000718272423140B000000C038E000000037
:10351000203C23020227382008F8888888700000A1
:10352000203F202020110E00C03008080808380075
:10353000071820202010080008F808080810E000EC
:10354000203F202020100F0008F88888E80810008D
:10355000203F20202320180008F88888E808100061
:10356000203F200003000000C03008080838000099
:1035700007182020221E020008F808000008F8089A
:10358000203F210101213F20000808F80808000021
:103590000020203F2020000000000808F808080054
:1035A000C08080807F00000008F888C028180800CC
:1035B000203F20012638200008F808000000000005
:1035C000203F20202020300008F8F800F8F80800FC
:1035D000203F003F003F200008F830C00008F808F6
:1035E000203F200007183F00E01008080810E00006
:1035F0000F10202020100F0008F808080808F0001D
:10360000203F210101010000E01008080810E0003F
:103610000F18242438504F0008F8888888887000D4
:10362000203F2000030C3020007088080808380074
:103630000038202121221C00180808F8080818006A
:103640000000203F2000000008F808000008F808EB
:10365000001F202020201F000878880000C838089C
:10366000000007380E010000F80800F80008F80014
:10367000033C0700073C03000818688080681808AE
:1036800020302C03032C30200838C800C83808002C
:103690000000203F2000000010080808C83808007B
:1036A0002038262120201800000000FE020202001F
:1036B0000000007F40404000000C30C000000000CF
:1036C000000000010638C00000020202FE000000F7
:1036D000004040407F00000000000402020204009D
:1036E00000000000000000000000000000000000DA
:1036F00080808080808080800002020400000000C2
:1037000000000000000000000000808080800000B9
:103710000019242222223F2008F8008080000000A7
:10372000003F112020110E0000000080808000006A
:10373000000E112020201100000000808088F80079
:10374000000E112020103F200000808080800000AB
:10375000001F222222221300008080F0888888180F
:103760000020203F2020000000008080808080001A
:10377000006B94949493600008F8008080800000AF
:10378000203F210000203F2000809898000000008A
:103790000020203F202000000000008098980000BA
:1037A00000C08080807F000008F8000080808000DA
:1037B000203F24022D302000000808F800000000FF
:1037C0000020203F202000008080808080808000BA
:1037D000203F20003F20003F80800080808000004C
:1037E000203F210000203F200000808080800000DA
:1037F000001F202020201F0080800080800000000B
:1038000080FFA12020110E00000000808080800039
:10381000000E112020A0FF8080808000808080002A
:1038200020203F2120000100000080808080800057
:103830000033242424241900008080E080800000CC
:103840000000001F20200000808000000080800019
:10385000001F202020103F2080808000008080807A
:1038600000010E300806010080800080008080800A
:103870000F300C030C300F0000808000808080002F
:103880000020312E0E31200080808000008080805A
:1038900080818E701806010000808080808080000A
:1038A0000021302C2221300000000000807C020228
:1038B00000000000003F404000000000FF0000004A
:1038C00000000000FF0000000002027C80000000F9
:1038D0000040403F00000000000601010202040415
:1038E00000000000000000000000000080808080D8
:1038F00080808080868F9FBFFFFCF8F8E0E0C0806A
:1039000080808080C0E0E0F8F8FCFEBF9F8F86805A
:103910008080808080800000000000F8FEFFFFFFB4
:10392000FF1F1F1F1F1F1F1F1F1F1F1F1F1F1F1FC7
:103930001F1F1F1F1F1F1F1F1F1F1F1F1F1F1F1F97
:103940001F1F1F1F1F1F1F1FFFFFFFFEFCF8FFFF92
:10395000FFFFFFFF000000E0E0F0F0F0F0F8F8F803
:10396000F8F8F800000000000000000000F8F8F887
:10397000F8F8F8F0F0F0F0E0200000FFFFFFFFFFA4
:10398000FFFFFFFFFFFFFF00000000030101010137
:1039900000000000008080000080C0C08000008027
:1039A0008000000000000101010303000000FFFF90
:1039B000FFFFFFFFFFFFFFFFFFFF00000000000011
:1039C00000000000000000010707070707030707C2
:1039D00007070703010000000000000000000000CE
:1039E00000FFFFFFFFFFFF0107071F1F1F1F1F1F14
:1039F0001FFFFFFFFFFFFF1F1F1F1F1F1F1F1F1F97
:103A00001F1F1F1F1F1F1F1F1F1F7FFFFFFFFFFF06
:103A10007F1F1F1F1F1F1F070703000033300000F9
:103A2000E838000810100000343A000804000000D4
:103A3000F0320008E6B3A2001060020CC000F88863
:103A40008888FF8888A8180004047C0380601F8091
:103A5000432C102846818000E789B900403C10FFC4
:103A60001010404848487F48C8484000020602FFFE
:103A7000010100020A1242827F020200E5BE8B00B1
:103A8000001088C43310545454FF54547C10100058
:103A9000020100FF0010121212FF12121210000099
:103AA000E58AA8004044C4444444401010FF10106C
:103AB00010F00000103C131014B840300E0140808C
:103AC000403F0000E83A000800000020100000001D
:103AD000FC010008F83A000810000020900B0000DC
:103AE0001C0200080000000001000000100000009F
:083AF0000024F40000000000B6
:040000050800019955
:00000001FF
